:100000000C9462000C948A000C948A000C948A0070
:100010000C948A000C948A000C948A000C948A0038
:100020000C948A000C948A000C948A000C948A0028
:100030000C948A000C948A000C948A000C948A0018
:100040000C94C6060C948A000C9494060C946E06CC
:100050000C948A000C948A000C948A000C948A00F8
:100060000C948A000C948A000000000024002700F1
:100070002A0000000000250028002B0000000008D6
:10008000000201000003040700000000000000005F
:1000900000000000230026002900040404040404D6
:1000A0000404020202020202030303030303010227
:1000B00004081020408001020408102001020408F6
:1000C0001020100711241FBECFEFD8E0DEBFCDBF38
:1000D00011E0A0E0B1E0E8E1F8E102C005900D9286
:1000E000AA38B107D9F722E0AAE8B1E001C01D9211
:1000F000AB35B207E1F710E0C2E6D0E004C02197CB
:10010000FE010E94040CC136D107C9F70E947C078A
:100110000C940A0C0C940000CF92DF92EF92FF92A5
:10012000CF93DF93B0913702A0E08111AB2F809184
:10013000380290E0880F991FAC0140575F4FC09084
:100140003D02D0903E02E0903F02F090400230E04D
:1001500020E0FA01C591D491E881B90190E080E0F6
:10016000EB23EA130AC02F5F3F4F6C157D058E0508
:100170009F0578F36FEF7FEFCB01DF91CF91FF9079
:10018000EF90DF90CF900895AF92BF92CF92DF9221
:10019000EF92FF920F931F93CF93DF936C017B013C
:1001A0008B01040F151FEB015E01AE18BF08C017CD
:1001B000D10759F06991D601ED91FC910190F08140
:1001C000E02DC6010995892B79F7C501DF91CF9103
:1001D0001F910F91FF90EF90DF90CF90BF90AF9065
:1001E0000895FC01538D448D252F30E0842F90E03D
:1001F000821B930B541710F0CF9608950197089522
:10020000FC01918D828D981761F0A28DAE0FBF2FEA
:10021000B11D5D968C91928D9F5F9F73928F90E040
:1002200008958FEF9FEF0895FC01918D828D9817AF
:1002300031F0828DE80FF11D858D90E008958FEFEC
:100240009FEF0895FC01918D228D892F90E0805CB5
:100250009F4F821B91098F739927089583E991E03D
:100260000E94220121E0892B09F420E0822F0895C9
:1002700080E090E0892B29F00E942E0181110C94DE
:1002800000000895FC01A48DA80FB92FB11DA35A39
:10029000BF4F2C91848D90E001968F739927848FA6
:1002A000A689B7892C93A089B1898C9183708064C9
:1002B0008C93938D848D981306C00288F389E02D6A
:1002C00080818F7D80830895EF92FF920F931F931B
:1002D000CF93DF93EC0181E0888F9B8D8C8D9813F9
:1002E0001AC0E889F989808185FF15C09FB7F89405
:1002F000EE89FF896083E889F98980818370806451
:1003000080839FBF81E090E0DF91CF911F910F919B
:10031000FF90EF900895F62E0B8D10E00F5F1F4FAA
:100320000F731127E02E8C8D8E110CC00FB607FCB9
:10033000FACFE889F989808185FFF5CFCE010E9447
:100340004201F1CFEB8DEC0FFD2FF11DE35AFF4F72
:10035000F0829FB7F8940B8FEA89FB8980818062D5
:10036000CFCFCF93DF93EC01888D8823B9F0AA8992
:10037000BB89E889F9898C9185FD03C0808186FD60
:100380000DC00FB607FCF7CF8C9185FFF2CF8081AF
:1003900085FFEDCFCE010E944201E9CFDF91CF91E1
:1003A000089590E0FC01E458FF4F2491FC01E255D0
:1003B000FF4F3491FC01E656FF4FE491EE23C9F064
:1003C000222339F0233001F1A8F4213019F1223031
:1003D00029F1F0E0EE0FFF1FEE58FF4FA591B49109
:1003E0008FB7F894EC91611126C030953E233C9371
:1003F0008FBF08952730A9F02830C9F0243049F77D
:10040000809180008F7D03C0809180008F778093E2
:100410008000DFCF84B58F7784BDDBCF84B58F7D3F
:10042000FBCF8091B0008F778093B000D2CF8091C6
:10043000B0008F7DF9CF3E2BDACFCF93DF9390E0E2
:10044000FC01E255FF4F249186569F4FFC01849199
:100450008823D1F090E0880F991FFC01E859FF4FE5
:10046000A591B491FC01EE58FF4FC591D491623033
:1004700071F49FB7F8943C91822F809583238C93DD
:10048000E8812E2B28839FBFDF91CF9108958FB7EE
:10049000F894EC912E2B2C938FBFF6CF3FB7F894A6
:1004A00080918B0190918C01A0918D01B0918E0172
:1004B00026B5A89B05C02F3F19F00196A11DB11DBF
:1004C0003FBFBA2FA92F982F8827BC01CD01620FFB
:1004D000711D811D911D42E0660F771F881F991FB6
:1004E0004A95D1F708958F929F92AF92BF92CF9283
:1004F000DF92EF92FF924B015C010E944E026B0172
:100500007C010E944E026C197D098E099F09683E8C
:10051000734081059105A8F321E0821A9108A10892
:10052000B10888EEC80E83E0D81EE11CF11C8114CE
:100530009104A104B10429F7FF90EF90DF90CF90D0
:10054000BF90AF909F908F900895CF92DF92EF92DF
:10055000FF920F931F93CF93DF93CDB7DEB7C054B5
:10056000D1400FB6F894DEBF0FBECDBF2FB7F894C1
:1005700080918F0190919001A0919101B091920191
:100580002FBF4091390250913A0260913B02709125
:100590003C028C019D01041B150B260B370BB90186
:1005A000A801403D57406105710590F480914102DA
:1005B000C05CDE4F0FB6F894DEBF0FBECDBFDF913B
:1005C000CF911F910F91FF90EF90DF90CF90089502
:1005D0008093390290933A02A0933B02B0933C027D
:1005E00010923402109233021092320210923102B1
:1005F0001092300262E0809135020E941D0261E09B
:1006000070E080E090E00E94730261E0809135022A
:100610000E941D0260E0809135020E94D10180910C
:1006200036028551823020F58BE291E10197F1F796
:1006300062E0809135020E941D028091420290E0AA
:100640008230910538F0880F991F880F991F059700
:100650000197F1F7F89480E00E948C006F3F7F4F84
:100660008F4F9F4F61F410924102789480E0A0CFA9
:1006700064E170E080E090E00E947302D9CF81E0F5
:100680000E948C006F3F7F4F8F4F9F4F61F38E0111
:100690000F5F1F4F6E018FEBC81A8EEFD80A7801DB
:1006A00080E00E948C00F7016083718382839383D2
:1006B00081E00E948C00F7016483758386839783B1
:1006C000F8E0EF0EF11CEC14FD0451F7789430E0E3
:1006D00020E0F801C080D180E280F3804481558120
:1006E00066817781FFEFCF16DF06EF06FF0631F058
:1006F0004F3F8FEF58076807780719F410924102AF
:10070000B5CFF90183E0F595E7958A95E1F7E05DCE
:10071000FD4F8081880FC416D506E606F70610F156
:1007200080832F5F3F4F085F1F4F2832310589F6C6
:10073000409134022091300280913102280F3327FA
:10074000331F80913202280F311D80913302820FB6
:10075000932F911D99274817190681F681E0809300
:10076000410226CF8160DCCF089590E080E00895BB
:10077000FB0101900020E9F73197AF01461B570BB1
:10078000DC01ED91FC910280F381E02D09948F92C0
:100790009F92AF92BF92EF92FF920F931F93CF93CE
:1007A000DF93CDB7DEB7A1970FB6F894DEBF0FBECB
:1007B000CDBF7C01FA01CB0119A2223008F42AE056
:1007C0008E010F5D1F4F822E912CB12CA12CBF01E9
:1007D000A50194010E94E20BF901CA016A300CF5EF
:1007E000605DD8016E938D01232B242B252B79F787
:1007F00090E080E0109721F0BD01C7010E94B8038E
:10080000A1960FB6F894DEBF0FBECDBFDF91CF919A
:100810001F910F91FF90EF90BF90AF909F908F909E
:100820000895695CDECFCF93DF93BC0183E492E04F
:100830000E94B803EC016EE171E083E492E00E9453
:10084000B8038C0F9D1FDF91CF9108952F923F9297
:100850004F925F926F927F928F929F92AF92BF92D0
:10086000CF92DF92EF92FF921F93CF93DF93EC0131
:100870006A017B01722EAB019601CB01B6010E9489
:10088000DD0B61E271E0811126C046015701E89459
:10089000B7F82FEF3FEF4FE75FE7C501B4010E94C4
:1008A000DD0B81110CC02FEF3FEF4FE75FE7C50174
:1008B000B4010E94130A65E271E0181664F02FEF8C
:1008C0003FEF4FE75FE4C701B6010E946B0B1816BC
:1008D000B4F469E271E0CE01DF91CF911F91FF90F6
:1008E000EF90DF90CF90BF90AF909F908F907F90D0
:1008F0006F905F904F903F902F900C94B8032FEF24
:100900003FEF4FE75FECC701B6010E94130A87FD76
:10091000E0CF20E030E0A901C701B6010E94130A30
:10092000312C212C87FF0DC0E881F9810190F081E5
:10093000E02D6DE2CE0109951C01F7FAF094F7F86D
:10094000F09410E060E070E080E09FE3711641F009
:1009500020E030E040E251E40E94180A1F5FF6CF29
:10096000A70196010E94A7092B013C010E948A0A57
:100970004B015C012AE0BC01A401CE010E94C70327
:100980007C01E20CF31C1123E1F1C501B4010E94CA
:10099000B90A9B01AC01C301B2010E94A6094B0137
:1009A0005C01E881F9810190F081E02D6EE2CE01D9
:1009B0000995E80EF91E115020F120E030E040E2E8
:1009C00051E4C501B4010E94700B2B013C010E944F
:1009D0008A0A4B01B12CA12C2AE0B501A401CE0159
:1009E0000E94C703E80EF91EC501B4010E94B90AAE
:1009F0009B01AC01C301B2010E94A6094B015C013D
:100A0000DACFC701DF91CF911F91FF90EF90DF9078
:100A1000CF90BF90AF909F908F907F906F905F909E
:100A20004F903F902F900895CF93DF93EC0160E0BB
:100A30008E810E94D10161E08E810E94D10160E02F
:100A40008E810E94D1018BE891E00197F1F7DF914F
:100A5000CF910895CF92DF92EF92FF920F931F9361
:100A6000CF93DF936C017C0187E0E80EF11CD0E0AE
:100A7000C0E0062F10E0B8010C2E02C075956795F6
:100A80000A94E2F76170F70181917F010E94D10120
:100A90002196C430D10579F7C601DF91CF911F911E
:100AA0000F91FF90EF90DF90CF900C941405CF92B0
:100AB000DF92EF92FF920F931F93CF93DF93EC019E
:100AC000F62E642F8C810E94D1018D818F3F19F009
:100AD00060E00E94D1010F2D10E08F8584FF25C0BA
:100AE0006E0187E0C80ED11CF12CE12CB8010E2C50
:100AF00002C0759567950A94E2F76170F6018191DD
:100B00006F010E94D101FFEFEF1AFF0A88E0E8169B
:100B1000F10461F7CE01DF91CF911F910F91FF900A
:100B2000EF90DF90CF900C941405B80184E0759598
:100B300067958A95E1F7CE010E942A056F2DCE01B7
:100B4000DF91CF911F910F91FF90EF90DF90CF90A9
:100B50000C942A0540E0682F83E492E00C9457053A
:100B600081E00E94AA058BE39FE10197F1F70895C8
:100B7000CF93DF93823029F4909152029860909342
:100B80005202809356021092570280E480935802DA
:100B900080E18093590280E580935A0261E0809160
:100BA00047020E941D02809148028F3F19F061E0C8
:100BB0000E941D0261E0809149020E941D02C3E46F
:100BC000D2E09E01235432408091520284FD0BC03A
:100BD00084E090E021962817390744F461E08E8183
:100BE0000E941D02EECF88E090E0F4CF8BE39DE001
:100BF0000197F1F760E0809147020E94D10160E027
:100C0000809149020E94D101809148028F3F19F0E2
:100C100060E00E94D1018091520284FD34C063E003
:100C200083E492E00E942A05CBE4D6E4CE0101974A
:100C3000F1F763E083E492E00E942A052197F1F73F
:100C400063E083E492E00E942A0583E592E0019745
:100C5000F1F762E083E492E00E942A05809152025B
:100C600080620E94AA0584E0809353028CE00E9477
:100C7000AA050E94B00582E08093540286E0DF91CD
:100C8000CF910C94AA0580620E94AA058BE496E499
:100C90000197F1F78091520280620E94AA0583E5D4
:100CA00092E00197F1F78091520280620E94AA05BA
:100CB000D5CF90915602691710F06FEF690FE62FAC
:100CC000F0E0ED5BFD4F9489890F80680C94AA05D4
:100CD00041E00E94570581E090E008951F920F9235
:100CE0000FB60F9211242F933F934F935F936F93FF
:100CF0007F938F939F93AF93BF93EF93FF9383E97A
:100D000091E00E944201FF91EF91BF91AF919F91BD
:100D10008F917F916F915F914F913F912F910F90A4
:100D20000FBE0F901F9018951F920F920FB60F9243
:100D300011242F938F939F93EF93FF93E091A3013F
:100D4000F091A4018081E091A901F091AA0182FDB6
:100D50001BC090818091AC018F5F8F732091AD019A
:100D6000821741F0E091AC01F0E0ED56FE4F958F17
:100D70008093AC01FF91EF919F918F912F910F90F4
:100D80000FBE0F901F9018958081F4CF1F920F9285
:100D90000FB60F9211242F933F938F939F93AF938E
:100DA000BF9380918F0190919001A0919101B0919A
:100DB000920130918A0123E0230F2D3758F50196D7
:100DC000A11DB11D20938A0180938F019093900102
:100DD000A0939101B093920180918B0190918C012D
:100DE000A0918D01B0918E010196A11DB11D80933E
:100DF0008B0190938C01A0938D01B0938E01BF91D4
:100E0000AF919F918F913F912F910F900FBE0F90B7
:100E10001F90189526E8230F0296A11DB11DD2CF71
:100E2000CF93E3E9F1E01382128288EE93E0A0E031
:100E3000B0E084839583A683B78384E091E09183B7
:100E4000808385EC90E09587848784EC90E0978799
:100E5000868780EC90E0918B808B81EC90E0938B87
:100E6000828B82EC90E0958B848B86EC90E0978B64
:100E7000868B118E128E138E148EE3E4F2E01382B1
:100E8000128286E191E0918380838CE084838FEFEE
:100E90008583CBE0C68385E0878384E0808783E019
:100EA000818782E0828713861486158616861786C8
:100EB00081E00E94B805A0E3B2E080E115968C9332
:100EC00015971696CC931697EEEBF0E0E4911796F3
:100ED000EC931797EAEAF0E0E4911896EC931897F0
:100EE00040E85EE360E070E01D964D935D936D9386
:100EF0007C935097CF910895789484B5826084BD97
:100F000084B5816084BD85B5826085BD85B581600D
:100F100085BD80916E00816080936E00109281008B
:100F20008091810082608093810080918100816046
:100F30008093810080918000816080938000809107
:100F4000B10084608093B1008091B0008160809393
:100F5000B00080917A00846080937A0080917A005A
:100F6000826080937A0080917A00816080937A0019
:100F700080917A00806880937A001092C10061E0CD
:100F800087E00E941D0261E088E00E941D0282E06D
:100F90000E94B805E091A301F091A40182E0808352
:100FA000E0919F01F091A0011082E091A101F091E8
:100FB000A2018FEC80831092AB01E091A701F09128
:100FC000A80186E08083E091A501F091A6018081CF
:100FD00080618083E091A501F091A6018081886005
:100FE0008083E091A501F091A601808180688083D3
:100FF000E091A501F091A60180818F7D808360E062
:1010000081E00E9459068DE291E00E94130461E0A4
:1010100080E00E9459068DE391E00E94130460ED88
:1010200077E080E090E00E9473020E94B00562E0E9
:10103000809135020E941D022FB7F89480918F0194
:1010400090919001A0919101B09192012FBF805D8C
:101050009740A109B1098093390290933A02A09375
:101060003B02B0933C0287E380934202C0E0D0E0B1
:101070000E94A502882349F0809136028B3028F027
:101080008D3050F085518230C8F1812C912C20ECAC
:10109000A22E2FE7B22E1EC06091310270E090E0C8
:1010A00080E00E94BB0A2DEC3CEC4CEC5DE30E941E
:1010B000700B6B017C016091300270E090E080E089
:1010C0000E94BB0A9B01AC01C701B6010E94A7099F
:1010D0004B015C010E94A502882309F475C0809130
:1010E00036028C3009F493C0D8F48B3091F1C12CC6
:1010F000D12C80ECE82E8FE7F82E55C0609130029D
:101100007091310276276727762790E080E00E9471
:10111000B90A2DEC3CEC4CEC5DE30E94700BD8CF8F
:101120008551823020F710913202612F70E0762FC6
:10113000662766277F7780913302682B90E080E0F6
:101140000E94B90A2DEC3CEC4CEC5DE30E94700B64
:101150007AC06091320270E090E080E00E94B90AAB
:101160006B017C011091330217FF0AC0AC019B0197
:1011700060E070E080E89FEB0E94A6096B017C01B3
:101180001F70612F70E090E080E00E94BB0A2DECA0
:101190003CEC4CEC5DE30E94700BA70196010E94B1
:1011A000A7096B017C01A7019601C701B6010E9446
:1011B000DD0B811109C0A5019401C501B4010E9494
:1011C000DD0B882309F448C00E94B00560E081E08F
:1011D0000E9459068EE491E00E94130461E080E0D1
:1011E0000E9459068EE591E00E94130460ED77E0BD
:1011F00080E090E00E947302209709F439CF0E94AA
:101200002E01882309F434CF0E94000031CF1091C1
:101210003202612F70E090E080E00E94B90A6B0119
:101220007C01609133026F7070E090E080E00E947A
:10123000BB0A2DEC3CEC4CEC5DE30E94700BA7016B
:1012400096010E94A7096B017C0117FFACCFF7FA4A
:10125000F094F7F8F094A7CF61E080E00E9459067F
:101260006FE671E083E492E00E94B80322E0B501EA
:10127000A40183E492E00E9426046FE671E083E912
:1012800091E00E94B80322E0B501A40183E991E056
:101290000E94260469E771E083E492E00E94B803AB
:1012A00060E081E00E9459066DE771E083E492E01E
:1012B0000E94B80322E0B701A60183E492E00E94F5
:1012C00026046EE171E083E492E00E94B8036DE7CA
:1012D00071E083E991E00E94B80322E0B701A60122
:1012E00083E991E00E9426046EE171E083E991E0D8
:1012F0000E94B80384E891E00E94130420E030E0EB
:101300004AEA52E4C501B4010E946B0B87FF0AC090
:101310002AE939E947E152E4C701B6010E946B0BA3
:1013200060E087FF61E087E00E94D10126E636E6B3
:1013300046E152E4C701B6010E94130A61E01816A3
:101340000CF460E088E00E94D10150CF5058BB27D8
:10135000AA270E94BE090C94310B0E94230B38F07F
:101360000E942A0B20F039F49F3F19F426F40C94C4
:10137000200B0EF4E095E7FB0C941A0BE92F0E946A
:10138000420B58F3BA17620773078407950720F0DA
:1013900079F4A6F50C94640B0EF4E0950B2EBA2F9D
:1013A000A02D0B01B90190010C01CA01A00111246B
:1013B000FF27591B99F0593F50F4503E68F11A1617
:1013C000F040A22F232F342F4427585FF3CF4695A8
:1013D00037952795A795F0405395C9F77EF41F16CA
:1013E000BA0B620B730B840BBAF09150A1F0FF0F94
:1013F000BB1F661F771F881FC2F70EC0BA0F621F80
:10140000731F841F48F4879577956795B795F7956F
:101410009E3F08F0B0CF9395880F08F09927EE0F04
:101420009795879508950E94F60A08F481E008953B
:101430000E942C0A0C94310B0E942A0B58F00E9437
:10144000230B40F029F45F3F29F00C941A0B511143
:101450000C94650B0C94200B0E94420B68F39923AB
:10146000B1F3552391F3951B550BBB27AA276217A0
:101470007307840738F09F5F5F4F220F331F441FAD
:10148000AA1FA9F335D00E2E3AF0E0E832D09150E1
:101490005040E695001CCAF72BD0FE2F29D0660FCE
:1014A000771F881FBB1F261737074807AB07B0E811
:1014B00009F0BB0B802DBF01FF2793585F4F3AF017
:1014C0009E3F510578F00C941A0B0C94650B5F3F0E
:1014D000E4F3983ED4F3869577956795B795F7959D
:1014E0009F5FC9F7880F911D9695879597F9089585
:1014F000E1E0660F771F881FBB1F62177307840721
:10150000BA0720F0621B730B840BBA0BEE1F88F72F
:10151000E09508950E944A0B88F09F5798F0B92FE4
:101520009927B751B0F0E1F0660F771F881F991F18
:101530001AF0BA95C9F714C0B13091F00E94640B4B
:10154000B1E008950C94640B672F782F8827B85F5B
:1015500039F0B93FCCF3869577956795B395D9F770
:101560003EF490958095709561957F4F8F4F9F4F7A
:101570000895E89409C097FB3EF490958095709586
:1015800061957F4F8F4F9F4F9923A9F0F92F96E9CF
:10159000BB279395F695879577956795B795F11144
:1015A000F8CFFAF4BB0F11F460FF1BC06F5F7F4FE1
:1015B0008F4F9F4F16C0882311F096E911C07723F3
:1015C00021F09EE8872F762F05C0662371F096E8FC
:1015D000862F70E060E02AF09A95660F771F881FCB
:1015E000DAF7880F9695879597F90895990F00086F
:1015F000550FAA0BE0E8FEEF16161706E807F907E5
:10160000C0F012161306E407F50798F0621B730B7F
:10161000840B950B39F40A2661F0232B242B252B00
:1016200021F408950A2609F4A140A6958FEF811DA3
:10163000811D089597F99F6780E870E060E0089544
:101640009FEF80EC089500240A94161617061806DA
:101650000906089500240A941216130614060506B6
:101660000895092E0394000C11F4882352F0BB0F47
:1016700040F4BF2B11F460FF04C06F5F7F4F8F4FAA
:101680009F4F089557FD9058440F551F59F05F3FE5
:1016900071F04795880F97FB991F61F09F3F79F094
:1016A00087950895121613061406551FF2CF469516
:1016B000F1DF08C0161617061806991FF1CF869598
:1016C0007105610508940895E894BB27662777277C
:1016D000CB0197F908950E94F60A08F48FEF089558
:1016E0000E94830B0C94310B0E94230B38F00E9454
:1016F0002A0B20F0952311F00C941A0B0C94200B5C
:1017000011240C94650B0E94420B70F3959FC1F35A
:10171000950F50E0551F629FF001729FBB27F00D9F
:10172000B11D639FAA27F00DB11DAA1F649F6627F4
:10173000B00DA11D661F829F2227B00DA11D621F43
:10174000739FB00DA11D621F839FA00D611D221FFD
:10175000749F3327A00D611D231F849F600D211DE1
:10176000822F762F6A2F11249F5750409AF0F1F064
:1017700088234AF0EE0FFF1FBB1F661F771F881FCD
:1017800091505040A9F79E3F510580F00C941A0BE0
:101790000C94650B5F3FE4F3983ED4F38695779500
:1017A0006795B795F795E7959F5FC1F7FE2B880F73
:1017B000911D9695879597F908950E94F60A880BD2
:1017C000990B0895A1E21A2EAA1BBB1BFD010DC0A7
:1017D000AA1FBB1FEE1FFF1FA217B307E407F507E1
:1017E00020F0A21BB30BE40BF50B661F771F881FBD
:1017F000991F1A9469F760957095809590959B0153
:10180000AC01BD01CF010895EE0FFF1F0590F491CB
:08181000E02D0994F894FFCFCC
:10181800000000006401C400F100B10122010001D0
:101828001401000000006806C400B503B4030D0AE3
:10183800006E616E00696E66006F766600496E69BB
:101848006369616E646F2020202020200020202002
:10185800202020696E63756261646F7261002046A2
:10186800616C6C6F20656E206C6120202000202048
:1018780020206C6563746F72612E20202020004840
:10188800756D656461643A20002025090054656D12
:0A189800703A2000204320200000D9
:00000001FF
